:020000040000FA
:100000000C9490030C94D7130C94B0130C94B80375
:100010000C94B8030C94B8030C94FE130C94B8031E
:100020000C94B8030C94B8030C94B8030C94B80364
:100030000C94B8030C94B8030C94B8030C94B80354
:100040000C9466130C94B8030C9434130C940E1394
:100050000C94B8030C94B8030C94B8030C94B80334
:100060000C94B8030C94B80300407A10F35A00A023
:10007000724E18090010A5D4E80000E87648170071
:1000800000E40B54020000CA9A3B000000E1F505B1
:10009000000080969800000040420F000000A086FB
:1000A00001000000102700000000E803000000002D
:1000B0006400000000000A000000000001000000D1
:1000C00000002C76D888DC674F0823DFC1DFAE59EB
:1000D000E1B1B796E5E3E453C63AE651997696E87E
:1000E000E6C28426EB898C9B62ED407C6FFCEFBC02
:1000F0009C9F40F2BAA56FA5F490055A2AF75C932D
:100100006B6CF9676DC11BFCE0E40D47FEF520E662
:10011000B500D0ED902E0300943577050080841E45
:10012000080000204E0A000000C80C333333330FA0
:10013000986E12831141EF8D2114893BE65516CF3D
:10014000FEE6DB18D1844B381BF77C1D901DA4BB49
:10015000E424203284725E228100C9F124ECA1E5FE
:100160003D2754534D3A494E49540A002154534DAA
:100170003A494E49543A545350204641494C0A009A
:100180005453463A5349443A4F4B2C49443D257504
:100190000A00215453463A5349443A4641494C2CAB
:1001A00049443D25750A0054534D3A494E49543A45
:1001B0005354415449443D25750A0054534D3A491E
:1001C0004E49543A545350204F4B0A0054534D3A21
:1001D000465041520A002154534D3A465041523A3A
:1001E0004E4F205245504C590A002154534D3A4627
:1001F0005041523A4641494C0A0054534D3A4650F8
:1002000041523A4F4B0A0054534D3A49443A5245F1
:10021000510A0054534D3A49440A002154534D3A6F
:1002200049443A4641494C0A0054534D3A49443AEC
:100230004F4B0A0054534D3A55504C0A0021545329
:100240004D3A55504C3A4641494C0A0054534D3AA8
:1002500055504C3A444757432C4F3D25752C4E3D45
:1002600025750A0054534D3A55504C3A4F4B0A00ED
:1002700054534D3A52454144593A49443D25752C11
:100280005041523D25752C4449533D25750A0021A6
:1002900054534D3A52454144593A55504C204641E9
:1002A000494C2C534E500A005453463A5444493A50
:1002B00054534C0A0054534D3A4641494C3A444930
:1002C000530A0054534D3A4641494C3A434E543D2B
:1002D00025750A0054534D3A4641494C3A52452D32
:1002E000494E49540A0025735453463A4D53473AF0
:1002F00053454E442C25752D25752D25752D2575B9
:100300002C733D25752C633D25752C743D25752C6E
:1003100070743D25752C6C3D25752C73673D2575D6
:100320002C66743D25752C73743D25733A25730A2C
:1003300000215453463A5254453A257520554E4BA8
:100340004E4F574E0A00215453463A5254453A46AE
:10035000504152204143544956450A0021545346C6
:100360003A534E443A544E520A005453463A43527A
:10037000543A4F4B0A004D434F3A50494D3A4E4F75
:100380004445205245473D25750A005453463A508E
:100390004E473A53454E442C544F3D25750A002193
:1003A0005453463A504E473A4143544956450A0041
:1003B0005453463A434B553A4641494C0A0054532C
:1003C000463A434B553A444757432C4F3D25752CED
:1003D0004E3D25750A005453463A434B553A4F4B10
:1003E0000A005453463A434B553A4F4B2C4643541C
:1003F000524C0A005453463A4D53473A52454C200A
:100400004D53470A005453463A4D53473A52454CD0
:100410002050784E472C48503D25750A00545346CD
:100420003A4D53473A5243562043420A00545346EA
:100430003A4D53473A465744204243204D53470ACA
:1004400000215453463A4D53473A47574C204641B2
:10045000494C0A005453463A4D53473A47574C20AB
:100460004F4B0A005453463A4D53473A4650415277
:10047000205245512C49443D25750A005453463AB3
:100480004D53473A42430A005453463A4D53473A74
:100490004543484F0A00215453463A4D53473A507A
:1004A0004F4E4720524543562C494E4143544956DE
:1004B000450A005453463A4D53473A504F4E472051
:1004C000524543562C48503D25750A005453463A30
:1004D0004D53473A50494E4745442C49443D2575B4
:1004E0002C48503D25750A00215453463A4D534738
:1004F0003A4650415220494E4143544956450A001C
:100500005453463A4D53473A46504152204F4B2C94
:1005100049443D25752C443D25750A005453463AFF
:100520004D53473A4543484F205245510A005453D2
:10053000463A4D53473A524541442C25752D257571
:100540002D25752C733D25752C633D25752C743D2B
:1005500025752C70743D25752C6C3D25752C7367A5
:100560003D25753A25730A00215453463A53414EAE
:100570003A4641494C0A005453463A53414E3A4F89
:100580004B0A004D434F3A5245473A5245510A00F3
:10059000214D434F3A50524F3A52433D25750A0080
:1005A000322E332E320A00207C5F5C2F602C0A072B
:1005B00002200220B28710034001200024022210F2
:1005C0000222020220022200222002022022271000
:1005D0001341010101032220304020305203402208
:1005E0001402031052240221710100101012101283
:1005F0002210100224010103220300200101003215
:100600002037121001213226012840322212101206
:100610001222432224121001222470C122240F0F1F
:100620005453463A5755523A4D533D256C750A007E
:100630004D434F3A42474E3A494E4954204F4B2C76
:100640005453503D25750A004D434F3A42474E3AA8
:100650005354500A004D434F3A42474E3A42465295
:100660000A004D434F3A42474E3A494E49542052B0
:10067000455045415445522C43503D524E4E5241F7
:100680002D2D2D2C46513D25752C52454C3D257563
:100690002C5645523D322E332E320A000000000007
:1006A000240027002A0000000000250028002B005D
:1006B000214D434F3A5741493A52433D25750A006F
:1006C00000000000230026002900040404040404A0
:1006D00004040202020202020303030303030102F1
:1006E00004081020408001020408102001020408C0
:1006F00010200000000800020100000304070000B1
:10070000000000000000214D434F3A534E443A4E42
:100710004F4445204E4F54205245470A00001D14B7
:1007200011241FBECFEFD8E0DEBFCDBF11E0A0E0A7
:10073000B1E0E8EFF8E302C005900D92AC37B107E5
:10074000D9F723E0ACE7B1E001C01D92A330B207B6
:10075000E1F713E0C0E9D3E004C02197FE010E9455
:10076000421CCF38D107C9F70E9466140C947A1C3A
:100770000C940000942FE1ECF2E03091DE01318323
:100780008283668325834481487F492B477E448347
:10079000CF010895AF92BF92CF92DF92EF92FF9276
:1007A0000F931F93CF93DF936C017B018B01040F99
:1007B000151FEB015E01AE18BF08C017D10759F035
:1007C0006991D601ED91FC910190F081E02DC60177
:1007D0000995892B79F7C501DF91CF911F910F9171
:1007E000FF90EF90DF90CF90BF90AF900895FC0105
:1007F000538D448D252F30E0842F90E0821B930B86
:10080000541710F0CF96089501970895FC01918D2B
:10081000828D981761F0A28DAE0FBF2FB11D5D962E
:100820008C91928D9F5F9F73928F90E008958FEFD0
:100830009FEF0895FC01918D828D981731F0828D84
:10084000E80FF11D858D90E008958FEF9FEF0895DB
:10085000FC01918D228D892F90E0805C9F4F821B3F
:1008600091098F739927089582EE91E00E942804E0
:1008700021E0892B09F420E0822F0895FC01A48D4A
:10088000A80FB92FB11DA35ABF4F2C91848D90E0B2
:1008900001968F739927848FA689B7892C93A08995
:1008A000B1898C91837080648C93938D848D98131F
:1008B00006C00288F389E02D80818F7D80830895B2
:1008C000EF92FF920F931F93CF93DF93EC0181E0A0
:1008D000888F9B8D8C8D98131AC0E889F989808147
:1008E00085FF15C09FB7F894EE89FF896083E8897A
:1008F000F98980818370806480839FBF81E090E06C
:10090000DF91CF911F910F91FF90EF900895F62EF8
:100910000B8D10E00F5F1F4F0F731127E02E8C8D92
:100920008E110CC00FB607FCFACFE889F9898081D7
:1009300085FFF5CFCE010E943E04F1CFEB8DEC0F89
:10094000FD2FF11DE35AFF4FF0829FB7F8940B8FF4
:10095000EA89FB8980818062CFCFCF93DF93EC015E
:10096000888D8823B9F0AA89BB89E889F9898C9197
:1009700085FD03C0808186FD0DC00FB607FCF7CF53
:100980008C9185FFF2CF808185FFEDCFCE010E9453
:100990003E04E9CFDF91CF91089580E090E0892B6C
:1009A00029F00E94340481110C94000008958330D2
:1009B00081F028F4813099F08230A9F008958730D1
:1009C000A9F08830C9F08430B1F4809180008F7D27
:1009D00003C0809180008F7780938000089584B554
:1009E0008F7784BD089584B58F7DFBCF8091B00053
:1009F0008F778093B00008958091B0008F7DF9CFFC
:100A0000CF93DF93E6EFF6E08491E2EEF6E0D49147
:100A1000EEECF6E0C491CC23A1F081110E94D70442
:100A2000EC2FF0E0EE0FFF1FE054F94FA591B491C9
:100A3000EC91ED2381E090E009F480E0DF91CF912B
:100A4000089580E090E0FACF1F93CF93DF93282F93
:100A500030E0F901EE50F94F8491F901E252F94F7B
:100A6000D491F901E653F94FC491CC23A9F0162F84
:100A700081110E94D704EC2FF0E0EE0FFF1FEA5522
:100A8000F94FA591B4918FB7F894EC91111108C06A
:100A9000D095DE23DC938FBFDF91CF911F91089516
:100AA000DE2BF8CFCF93DF9390E0FC01E252F94FB9
:100AB00024918653994FFC0184918823D1F090E0D2
:100AC000880F991FFC01E456F94FA591B491FC01E0
:100AD000EA55F94FC591D49161110EC09FB7F894B2
:100AE0008C91E22FE0958E238C932881E223E8837A
:100AF0009FBFDF91CF9108958FB7F894EC91E22BCF
:100B0000EC938FBFF6CF3FB7F8948091A4019091FA
:100B1000A501A091A601B091A70126B5A89B05C08B
:100B20002F3F19F00196A11DB11D3FBFBA2FA92F6C
:100B3000982F8827BC01CD01620F711D811D911D69
:100B400042E0660F771F881F991F4A95D1F70895D5
:100B50008F929F92AF92BF92CF92DF92EF92FF92CD
:100B60006B017C010E9483054B015C01C114D1041F
:100B7000E104F104B9F00E948305681979098A0932
:100B80009B09683E73408105910580F321E0C21AFC
:100B9000D108E108F10888EE880E83E0981EA11CB8
:100BA000B11CE4CFFF90EF90DF90CF90BF90AF905B
:100BB0009F908F9008952FB7F8946091A001709145
:100BC000A1018091A2019091A3012FBF08950895E2
:100BD000FC01838187708860838384818F71806248
:100BE00084836783CF010895FC0183818695869570
:100BF00086958A3108F089E10895E0919001F0919D
:100C00009101309721F00280F381E02D099408953D
:100C10000F931F930E94DB050091920110919301A5
:100C20002091940130919501601B710B820B930B05
:100C30001F910F9108959C018091900190919101D5
:100C400082179307F1F090919A019F7190939A0106
:100C50003093910120939001E0919001F0919101E6
:100C6000309721F00190F081E02D09950E94DB057D
:100C700060939201709393018093940190939501F6
:100C8000089580919A01805E80939A01E5CF8EBD90
:100C900000000DB407FEFDCF8EB508950F931F938E
:100CA000CF93DF93EC018C81829586958770A9F4B0
:100CB000CE010E94F405482F50E0BE01695F7F4FCE
:100CC0008BEA91E00E94481CCE010E94F405E82FB7
:100CD000F0E0E555FE4F108209C0813071F48F813C
:100CE0004AE06BEA71E090E00E9416168BEA91E010
:100CF000DF91CF911F910F910895823031F44AE036
:100D00006BEA71E08F819885EFCF833041F44AE040
:100D10006BEA71E08F8198850E946F16E7CF84306F
:100D200051F46F81788589859A852AE04BEA51E0F4
:100D30000E942116DBCF853051F46F81788589853B
:100D40009A852AE04BEA51E00E944D16CFCF10E081
:100D5000873071F42B85293008F028E06F81788581
:100D600089859A850BEA11E042E00E94B315BECF57
:100D7000CE010E94F405181738F5E12FF0E09F012D
:100D8000220F331FD901A555BE4FEC0FFD1F8781E0
:100D9000082E000C990B44E0959587954A95E1F74C
:100DA0008F708A3068F4805D8C9324553E4F878124
:100DB0008F708A3038F4805DF90180831F5FD8CF4F
:100DC000895CF2CF895CF8CFE82FF0E0EE0FFF1FCF
:100DD00080CF8091E602829586958770813019F4E4
:100DE0008091E9020895811105C089EE92E00E9488
:100DF000D115089580E00895FC0101900020E9F7E5
:100E00003197AF01481B590BBC0182EE91E00C9465
:100E1000CA030F931F93CF93DF93EC018B01E0E0A4
:100E20006115710549F0FB0101900020E9F7319748
:100E3000E61BEA3108F0E9E18B81877098E0E99FD1
:100E4000F0011124E82BEB838C818F718C83CE0110
:100E50000E94F405482F50E0B801CE0107960E9489
:100E6000481CCE010E94F4058C0F9D2F911DFC01A2
:100E70001782CE01DF91CF911F910F910895BF92FC
:100E8000CF92DF92EF92FF920F931F93CF93DF9356
:100E90007B01042FB22E91E59CBD91E09DBD2A9867
:100EA000E3E2F0E03197F1F70E944706182FE701DF
:100EB0000150A8F0BB2051F08FEF0E944706182F79
:100EC000E114F104A9F388832196F2CF6E018FEF2C
:100ED000C81AD80A88810E944706E601E9CF2A9AF3
:100EE00083E290E00197F1F7812FDF91CF911F917D
:100EF0000F91FF90EF90DF90CF90BF900895CF9328
:100F0000DF931F92CDB7DEB7698320E041E0BE01D9
:100F10006F5F7F4F0E943F070F90DF91CF91089541
:100F20006FE080E20E947F07609108016F3F19F037
:100F30008AE20E947F07299A089521E041E070E04B
:100F400060E00C943F0786E00E949D07853231F4F3
:100F500085E00E949D0791E0803509F090E0892F9F
:100F6000089520E040E070E060E00C943F07CF92ED
:100F7000DF92EF92FF920F931F93CF93DF93CDB742
:100F8000DEB7C857D1090FB6F894DEBF0FBECDBF8C
:100F90000E94DB059B01AC0119A28E010F5D1F4F62
:100FA0008AE0C82ED12CE12CF12CCA01B901A7018D
:100FB00096010E940A1C605DF80162938F01211561
:100FC00031054105510589F7309719F0CF010E948D
:100FD000FC0687E791E00E94FC069E012B573F4FDD
:100FE000CD57DF4F48815981C358D04068E770E042
:100FF000CE0101960E948916CE0101960E94FC0640
:1010000082EE91E00E94AD04C858DF4F0FB6F8940D
:10101000DEBF0FBECDBFDF91CF911F910F91FF902B
:10102000EF90DF90CF9008959F92AF92BF92CF92B2
:10103000DF92EF92FF920F931F93CF93DF93EC0118
:101040000A8180919A0180FF18C00F3FB9F186E4B0
:1010500093E09F938F930E94B7070F900F9000E04B
:10106000802FDF91CF911F910F91FF90EF90DF9034
:10107000CF90BF90AF909F9008951091DF01002313
:10108000F1F00F3FD9F0802F90E003960E948A1B69
:10109000182F8F3FA1F41F920F9381E393E09F934A
:1010A0008F930E94B7071091DF010F900F900F9060
:1010B0000F908881181303C0102F01C01FEF80917B
:1010C000DE0188838B8100E282FD05C0CE010E9493
:1010D000F40507E0080F8091E101FF24F39480FDFF
:1010E00003C01F3F09F0F12C209709F4C0C02998D4
:1010F00083E092E00197F1F76EE080E20E947F07C3
:101100008BE891E00197F1F7612F8AE20E947F0757
:10111000612F80E30E947F0781EE0E94B107FF20CC
:1011200021F060E584E20E947F0720E0402FBE01AD
:1011300080EA0E943F07299AD12CC12C8FEF0E9490
:10114000B107807349F48FEFC816D80629F0A89527
:101150009FEFC91AD90AF2CF299860E787E20E9467
:101160007F07082F84FF03C081EE0E94B107FF2094
:1011700021F06FE584E20E947F070E94900705FD41
:1011800078C00F2D8C818770833039F48D8127E3EF
:10119000A22E21E0B22E813121F0CE010E944E0616
:1011A0005C0192E4C92E91E0D92E002321F08FE357
:1011B000C82E81E0D82E80919B018F70982EEB80F5
:1011C000E2FAEE24E0F8CE010E94F4059C81B92FEA
:1011D000B295B695B770AD819770FE81EA81412FC7
:1011E00050E07881698127E431E0F11006C029E4FC
:1011F00031E0002311F02BE731E0BF92AF92DF9294
:10120000CF921F929F921F92EF921F928F931F92E5
:10121000BF931F92AF931F929F931F92FF931F92B2
:10122000EF935F934F931F927F931F926F933F9320
:101230002F9386EE92E09F938F930E94B7078DB70E
:101240009EB74E960FB6F8949EBF0FBE8DBF80918D
:10125000DF01811305CF80919B0101110CC091E04A
:10126000980F9F70807F892B80939B01F9CE00E0BF
:1012700089CF01E087CF807FF7CF20919A0122FDAF
:101280000C9414088CE593E09F938F930E94B7070A
:101290000F900F9080E008951F93CF93DF93182F46
:1012A000262FEA0150E040E0682F80E00E94BA0358
:1012B0001F3F11F4CBE4D1E0BE010E940907DF918A
:1012C000CF911F910C943D09FC018091DE01818337
:1012D0009481907F916094838091AA0180FF03C0E4
:1012E000CF010C943D0986E097E09F938F930E9475
:1012F000B7070F900F9080E008950F931F93CF933F
:10130000DF930E940005019709F091C062E370E04D
:1013100080E090E00E94A8050E940005019719F462
:1013200081E080938F0190918F0180918E018917C8
:1013300011F1992309F47EC061E08FE792E00E94E9
:10134000E8050E94640980918F0180938E010E94BC
:10135000DB0568577C4E8F4F9F4F60938A017093D7
:101360008B0180938C0190938D0180918E019091DF
:101370008F01891310C0882371F00E94DB05685724
:101380007C4E8F4F9F4F60938A0170938B018093A7
:101390008C0190938D010E94DB05009186011091D4
:1013A00087012091880130918901601771078207B8
:1013B0009307C0F180918401909185012091820171
:1013C00030918301821793072CF401969093850145
:1013D00080938401809184019091850128173907B9
:1013E0002CF401979093850180938401C09184012E
:1013F000D091850161E083E00E9452052097B1F50C
:1014000060E083E00E9424050E94DB05675E7F4F59
:101410008F4F9F4F6093860170938701809388015F
:1014200090938901DF91CF911F910F9108951092B0
:101430008F0179CF0E94DB0500918A0110918B0109
:1014400020918C0130918D016017710782079307FD
:1014500008F48BCF60E08FE792E00E94E8050E94DD
:10146000640980918F0180938E017FCFCF3FD1059A
:1014700011F461E0C6CFE5EFF6E0E491E33019F155
:1014800040F4E130B1F0E230C9F0C038D1058CF75A
:10149000B7CFE73011F1E83041F1E430B1F7809196
:1014A0008000806280938000D0938B00C0938A007C
:1014B000ABCF84B5806884BDC7BDA6CF84B580623C
:1014C00084BDC8BDA1CF80918000806880938000DA
:1014D000D0938900C093880097CF8091B000806836
:1014E0008093B000C093B3008FCF8091B000806232
:1014F0008093B000C093B40087CF60E084E00E9486
:101500005205E0EAF2E083818770886283838481F8
:10151000806E8483178210861186128681E083870D
:10152000CF010E94640960918F018FE792E00E94D1
:10153000E8050C946409CF93DF93FC0126812130E8
:10154000E9F58481829586958770823069F5C78137
:10155000D0852EEF30E0DE010E943B1C24E630E017
:1015600040E050E00E94B41B30938301209382013D
:1015700064E670E080E090E00E94A8058091A302FC
:10158000877080618093A3028091A4028F71806430
:101590008093A402D093A802C093A70280EA92E0AD
:1015A000DF91CF910C946409D0E0C0E08111D1CFDC
:1015B000CF0107960E94D115EC01CBCFDF91CF91DF
:1015C0000895FF920F931F93CF93DF93CDB7DEB7AC
:1015D00028970FB6F894DEBF0FBECDBF2BE043E0D7
:1015E00050E06FEF80E00E94BA0361E571E00E9475
:1015F00009070E943D092CE043E050E06FEF80E0D6
:101600000E94BA0369E571E00E9409070E943D0942
:1016100088E0E1E7F1E08E010F5F1F4FD8010190F4
:101620000D928A95E1F71F92FF24F394FF928DE5C6
:1016300091E09F938F931F930F930E94571CA801D3
:1016400064E070E081E00E944C091F92FF9287E6FF
:1016500091E09F938F931F930F930E94571CA801B3
:1016600070E060E082E00E944C090FB6F894DEBFA3
:101670000FBECDBF28960FB6F894DEBF0FBECDBF0C
:10168000DF91CF911F910F91FF9008952F923F927C
:101690004F925F926F927F928F929F92AF92BF9282
:1016A000CF92DF92EF92FF920F931F93CF93DF932E
:1016B000CDB7DEB7A1970FB6F894DEBF0FBECDBF92
:1016C00080919A0184FB772470F884FFE0C30E9424
:1016D000DB0500917D0110917E0120917F01309109
:1016E0008001601B710B820B930B613A7B4B8D4029
:1016F0009105D0F00E94DB0560937D0170937E011F
:1017000080937F01909380010E94A307811114C1EF
:1017100088E695E09F938F930E94B70789E191E057
:101720000E941B060F900F9086E0C82E22242A9458
:1017300092E0392E93E0492E532C87E10E949D07B9
:1017400080FDA5C3CA94CC2009F4A1C321E041E0E7
:1017500070E060E080E60E943F07182F813220F0A1
:1017600082EE0E94B10710E021E0412F62EE72E0AC
:1017700081E60E943F0760E487E20E947F0781E2E2
:10178000E2EEF2E0DE01119601900D928A95E1F70A
:101790000C81802F8370823081F6CE0101960E94E9
:1017A000F40502FD89E1895F1813C7CF82EE92E04C
:1017B0000E94F405682E8091E6028770F82E109141
:1017C000E7020091E302E090E202D090E40283E0BD
:1017D000F81204C087E391E0113121F082EE92E02B
:1017E0000E944E06A62CB12C802E912C9F938F9395
:1017F0008091E50282FB882780F91F928F931F92C8
:101800006F928091E6028295869587701F928F93E2
:101810001F921F931F92FF928091E8021F928F9355
:101820001F92DF921F92EF921F920F938EE295E02C
:101830009F938F930E94B7070FB6F894DEBF0FBE39
:10184000CDBF8091DF01E81649F08091DE010817D5
:1018500029F06E2DC40103960E94A21B80919B016A
:10186000806880939B018091DE01D8129BC1F501B5
:10187000EE51FD4F17828091E60283FF21C08CE17B
:1018800095E09F938F930E94B70781E2E2EEF2E02A
:10189000A1ECB2E001900D928A95E1F78091C5022A
:1018A000877E80618093C5028091DE018093C202B1
:1018B0000093C30281EC92E00E943D090F900F90CB
:1018C0009091E60294FD65C123E0F2125AC1809125
:1018D000E70221EF280F233008F42FCF143009F44A
:1018E0002CCF1830C9F510919A0110FF2CC00E941E
:1018F000E9068F3F09F421CF8F5F8F3F09F41DCF99
:101900009091E001891708F018CF11FD16CF809350
:10191000E0010093DF011F928F931F920F9380E0ED
:1019200095E09F938F930E94B7070F900F900F90B1
:101930000F900F900F9001CF87E795E09F938F93C3
:101940000E94B707EFCE88EE94E09F938F930E949A
:10195000B7070F900F90F1CE1831C9F40E94E90635
:101960001F928F931F920F938CEC94E09F938F9311
:101970000E94B70729E143E050E06FEF802F0E94FB
:10198000BA0361E00E94E8050E941408CECF193125
:10199000D9F480919A0183FF14C0877F80939A01C4
:1019A0000E94E90680939C011F928F9383EB94E041
:1019B0009F938F930E94B7070F900F900F900F90F7
:1019C000BCCE86E994E0C1CF1E3109F4B6CE1D31FC
:1019D000C1F42FE143E050E06FEF80E00E94BA03D2
:1019E000FC01838187708061838384818F7180642F
:1019F000848380E09FEF90878783CF010E94140843
:101A00009CCE2091E3022111C1C08D3059F488E1B0
:101A100098E00FB6F894A895809360000FBE90935D
:101A20006000FFCF8B3189F40E94E90691E08111BB
:101A300001C090E08091AA0190FB80F98093AA01F7
:101A40001F929F9386E793E0B3CF8630A1F49091E5
:101A5000E902872D992321F081E09D3409F080E08F
:101A60008093A90141E050E063E071E089EA91E0F0
:101A70000E94921B62CE833119F40E94CD0F5DCE7D
:101A80008231E1F40E9408064B015C0126E143E04B
:101A900050E06FEF80E00E94BA03FC018381877001
:101AA0008062838384818F71806A84838782908639
:101AB000A186B286CF010E943D093FCE8230A9F4B3
:101AC00022E043E050E06FEF80E00E94BA03FC01A7
:101AD000838187708062838384818F71806A84832D
:101AE0002782308641865286E5CF813001F520E09D
:101AF00030E0232B09F421CE92959695977095307E
:101B000059F46091E9027091EA028091EB029091A0
:101B1000EC020E94000011CE911105C089EE92E006
:101B20000E94EF15F6CF60E070E0CB01F2CF8A3073
:101B300029F58091E902833409F0FFCD03E010E03C
:101B40006FEFC8010E94A21B0F5F1F4F033081E09F
:101B50001807B1F78AE693E09F938F930E94B70727
:101B60002AE043E050E06FEF80E00E94BA036FE3A9
:101B700071E00E9409070E943D09EBCE8C3109F407
:101B8000DCCD82EE92E00E949B0AD7CD8A31C9F764
:101B9000D4CD88E894E09F938F930E94B7070F906D
:101BA0000F90EFCF9FEFD91244C18CE794E09F9341
:101BB0008F930E94B7070F900F9083E0F8120DC12A
:101BC00080919A0182FFECC0173009F0E9C0809142
:101BD000DF01081709F4B1CD1F920F9384E694E05A
:101BE0009F938F930E94B7070E94DB058090960118
:101BF00090909701A0909801B09099016819790987
:101C00008A099B090F900F900F900F9060317742D7
:101C10008105910568F582EE93E09F938F930E9472
:101C2000B7070F900F900E94DB05609396017093A9
:101C30009701809398019093990184E594E09F9394
:101C40008F930E94B7070E94DB057370882799273E
:101C50000E94A80528E043E050E06FEF802F0E942B
:101C6000BA036091E0010E94E8050E94140871CE59
:101C700080919A0183FB112710F983FD5EC01F92AA
:101C80001F928BE893E09F938F930E94B7070F906A
:101C90000F900F900F908091DE01811119C010926A
:101CA0009C0180919A01877F80939A0110919C01F9
:101CB0001F3F09F04BC080EB93E09F938F930E94EE
:101CC000B70781E494E09F938F930E94B70774CE87
:101CD00080919A01886080939A01D0929C0128E1BA
:101CE00043E050E06FEF80E00E94BA0361E00E94A1
:101CF000E8050E9414080E94DB054B015C0110926C
:101D0000E7020E94DB05681979098A099B09603D91
:101D100077408105910528F61111C3CF0E94460B2B
:101D2000A8958091E6028770833059F711E0809181
:101D3000E702893131F310E0E4CF8FE993E09F931C
:101D40008F930E94B7070F900F90B5CF0E94DB05CD
:101D500060939601709397018093980190939901F5
:101D600086ED93E09F938F930E94B7078091E001E7
:101D70000F900F90811709F456CF1F921F931F9257
:101D80008F938EEB93E09F938F930E94B7071093EE
:101D9000E0010F900F900F900F900F900F9043CF96
:101DA000183009F4CACC1431C1F48091DF01E81273
:101DB00014C00E94DB057370882799270E94A8052C
:101DC00025E143E050E06FEF802F0E94BA0360915D
:101DD000DF010E94E8050E9414088091DF01E812EB
:101DE000ACCC8091DE01081709F44DC080919A01B6
:101DF00082FF49C08DE294E09F938F930E94B707C2
:101E000082EE92E00E9414080F900F9083E0F81683
:101E100009F493CC8091DF01E8128FCC8DE194E03E
:101E20009F938F930E94B70782EE92E00E949B0AD5
:101E300090CD80919A0182FF80CC83E0F8121AC085
:101E400018511230B8F40E94E906182F1F928F9390
:101E500085E094E09F938F930E94B7070F900F90B7
:101E60000F900F901E3F31F061E0610F82EE92E023
:101E70000E94E80584EF93E09F938F930E94B70739
:101E800082EE92E0F2CE83E0F812C8CF56CCA19653
:101E90000FB6F894DEBF0FBECDBFDF91CF911F917B
:101EA0000F91FF90EF90DF90CF90BF90AF909F90F9
:101EB0008F907F906F905F904F903F902F900895FC
:101EC00080918101882361F01F928F9380E995E0D2
:101ED0009F938F930E94B7070F900F900F900F90D2
:101EE000809181018F5F80938101A8950E94FD05FB
:101EF0000E94460B80918101815080938101089559
:101F0000CF92DF92EF92FF92CF93DF93D82F809101
:101F1000A801882361F01F928F9380EB96E09F9336
:101F20008F930E94B7070F900F900F900F908091A2
:101F3000A8018F5F8093A8010E94DB056B017C01E3
:101F40008091E60287608093E602C0E00E94DB0594
:101F50006C197D098E099F09603D774081059105C7
:101F600078F4C1110DC00E94600F8091E602877065
:101F7000833061F7C1E08091E7028D13E6CFE6CFB1
:101F80008091A80181508093A8018C2FDF91CF917F
:101F9000FF90EF90DF90CF9008952FE043E050E066
:101FA0006FEF80E00E94BA036BE771E00E940907BF
:101FB000E1ECF2E0838187708061838384818F719B
:101FC000806C848381E087831086CF010E943D0965
:101FD0008FE00E94800F4BE751E062E170E08FEFED
:101FE0000E944C0926E043E050E06FEF80E00E9441
:101FF000BA036091DF010E94E8050E943D0986E076
:102000000E94800F0C94E10ACF938091AA0181FD78
:1020100028C00E94CD0F83E895E09F938F930E9484
:10202000B7078091AA0181608093AA010F900F9059
:10203000C4E02AE143E050E06FEF80E00E94BA0381
:1020400062E00E94E8050E943D098BE10E94800F3A
:10205000811102C0C15069F78091AA01826080930A
:10206000AA01CF9108950F931F930E940806209113
:102070009B0120772037B9F000E117E220E030E043
:10208000061717072807390798F484ED92E09F9305
:102090008F930E94B7070F900F908DE191E01F91F1
:1020A0000F910C941B0600E61AEE20E030E0E8CF1A
:1020B0001F910F91089580919B01982F90779037F1
:1020C00059F0982F92959F709F5F97709295907F8F
:1020D0008F78892B80939B0180919B0182958770DB
:1020E0001F928F9383EC92E09F938F930E94B70788
:1020F00080919A018B7F8F7E80939A0185EB92E08D
:102100009F938F930E94B70788EA92E09F938F93E3
:102110000E94B70729988DB79EB708960FB6F89416
:102120009EBF0FBE8DBF6CE080E20C947F07809154
:102130009B018F708B3060F08FE892E09F938F93BC
:102140000E94B7070F900F9085E191E00C941B0659
:1021500008958091E0011F928F938091DF011F927B
:102160008F938091DE011F928F9380E792E09F937F
:102170008F930E94B70780919A01846080939A019F
:1021800080919B01807880939B01E0919D01F0916B
:102190009E018DB79EB708960FB6F8949EBF0FBEEE
:1021A0008DBF309709F00994089580919C018F3F6D
:1021B00081F10E94DB0560939601709397018093F3
:1021C00098019093990184E692E09F938F930E94E7
:1021D000B70790919C018091E0010F900F909817A4
:1021E000A1F01F929F931F928F938CE492E09F9394
:1021F0008F930E94B70780919C018093E0010F901C
:102200000F900F900F900F900F9081E191E00C9440
:102210001B060E940806613D774081059105B8F0D4
:1022200080919A01803618F48DE091E0F0CF8DE333
:1022300092E09F938F930E94B70780919A01877FC6
:1022400080939A010F900F9085E191E0E0CF08957F
:1022500084E392E09F938F930E94B7078FEF809360
:102260009C01EAE9F1E080818860808328E143E015
:1022700050E06FEF80E00E94BA0361E00E94E80541
:102280000F900F900C9414088091DE018F3F61F045
:1022900089E292E09F938F930E94B7070F900F906F
:1022A0008DE091E00C941B060E940806613D77408A
:1022B0008105910590F080919A01803618F489E0AB
:1022C00091E0F0CF8BE192E09F938F930E94B7074C
:1022D0000F900F9089E191E0E5CF089583E192E0BE
:1022E0009F938F930E94B7070F900F908091DE010C
:1022F0008F3FA9F487E092E09F938F930E94B707E6
:1023000023E043E050E06FEF80E00E94BA036BE708
:1023100071E00E9409070F900F900C941408089523
:102320000E940806613D77408105910520F4809167
:102330009A0181FF2FC08091DF018F3F89F08AEFE2
:1023400091E09F938F930E94B70780919A018E7FAF
:1023500080939A010F900F9089E091E00C941B06F6
:1023600080919A01803658F486ED91E09F938F9387
:102370000E94B7070F900F9085E191E0EFCF8AEEB2
:1023800091E09F938F930E94B7070F900F9089E180
:1023900091E0E4CF08958CEC91E09F938F930E949D
:1023A000B707EAE9F1E08081897F81608083EEED03
:1023B000F1E08FEF8283818327E043E050E06FEF0D
:1023C0000E94BA036BE771E00E9409070F900F901B
:1023D0000C941408CF93219A229A29982A9ACFB75D
:1023E000F89480917C01811127C0E4EDF6E084919E
:1023F000E8EEF6E09491E82FF0E0EE0FFF1FE456D0
:10240000F94FA591B491EC91E92321F461E08AE0C0
:102410000E94240561E08AE00E9452058CB580612B
:102420008CBD8CB580648CBD61E08DE00E9452054E
:1024300061E08BE00E94520580917C018F5F809368
:102440007C01CFBF29986EE080E20E947F078BE479
:1024500096E40197F1F763E083E20E947F076FE55E
:1024600084E20E947F0760E585E20E947F0765E2C3
:1024700086E20E947F0764E08DE30E947F078DE182
:102480000E949D07843041F063E780E50E947F074A
:1024900064E08DE30E947F070E94A30781110DC0B5
:1024A0008CE691E09F938F930E94B7070F900F9057
:1024B00089E191E0CF910C941B0662E082E20E94D8
:1024C0007F0760E081E20E947F0763E08CE30E9467
:1024D0007F078FEF8093030120E045E063E071E028
:1024E0008BE20E943F0720E045E063E071E08AE272
:1024F0000E943F0720E045E063E071E080E30E9436
:102500003F0782EE0E94B10781EE0E94B10760E7AB
:1025100087E20E947F078BEB91E09F938F930E944D
:10252000B70780919A01806180939A018091E101BF
:102530008E7F8093E1011F92C1E0CF9387EA91E003
:102540009F938F930E94B707C093DE0161E090E0F4
:1025500080E00E94A21BC091DE010F900F900F90AF
:102560000F900F900F90CF3F09F18FEF8C0F8E3FA0
:1025700000F5C093080163E082E20E947F0761E0FA
:1025800081E20E947F070E9490076C2F90E080E01C
:102590000E94A21B1F92CF9380E891E09F938F939C
:1025A0000E94B7070F900F900F900F9085E191E078
:1025B00081CF1F921F9282E991E09F938F930E9497
:1025C000B7070F900F900F900F9072CF82E691E0B7
:1025D0009F938F930E94B707EAE9F1E08081877F9C
:1025E0008F7E80831092960110929701109298012D
:1025F000109299010E94DB0560937D0170937E012A
:1026000080937F01909380010F900F9044E050E001
:1026100070E060E08EED91E00C947A1B1F920F92B7
:102620000FB60F9211242F933F934F935F936F93A5
:102630007F938F939F93AF93BF93EF93FF9382EE1C
:1026400091E00E943E04FF91EF91BF91AF919F9165
:102650008F917F916F915F914F913F912F910F904B
:102660000FBE0F901F9018951F920F920FB60F92EA
:1026700011242F938F939F93EF93FF93E091F20197
:10268000F091F3018081E091F801F091F90182FD70
:102690001BC090818091FB018F5F8F732091FC01A3
:1026A000821741F0E091FB01F0E0EE51FE4F958F73
:1026B0008093FB01FF91EF919F918F912F910F904C
:1026C0000FBE0F901F9018958081F4CF1F920F922C
:1026D0000FB60F9211242F933F938F939F93AF9335
:1026E000BF938091A0019091A101A091A201B0910E
:1026F000A30130919F0123E0230F2D3758F5019658
:10270000A11DB11D20939F018093A0019093A10171
:10271000A093A201B093A3018091A4019091A5017F
:10272000A091A601B091A7010196A11DB11D8093B2
:10273000A4019093A501A093A601B093A701BF9116
:10274000AF919F918F913F912F910F900FBE0F905E
:102750001F90189526E8230F0296A11DB11DD2CF18
:102760001F920F920FB60F9211242F933F934F9306
:102770005F936F937F938F939F93AF93BF93EF93E9
:10278000FF93E0912301F09124010995FF91EF91CE
:10279000BF91AF919F918F917F916F915F914F9179
:1027A0003F912F910F900FBE0F901F9018951F9281
:1027B0000F920FB60F9211242F933F934F935F9375
:1027C0006F937F938F939F93AF93BF93EF93FF93F9
:1027D000E0912101F09122010995FF91EF91BF91C4
:1027E000AF919F918F917F916F915F914F913F91A9
:1027F0002F910F900FBE0F901F9018951F920F9260
:102800000FB60F9211240F900FBE0F901F901895C6
:10281000CF93DF93FC011082118212821482158201
:102820001682DC0117968AE1ED0119928A95E9F783
:1028300082E08383DF91CF910895E2EEF1E013828D
:10284000128288EE93E0A0E0B0E084839583A683B3
:10285000B78389E291E09183808385EC90E095874E
:10286000848784EC90E09787868780EC90E0918B5A
:10287000808B81EC90E0938B828B82EC90E0958B47
:10288000848B86EC90E0978B868B118E128E138E44
:10289000148E82EE92E00E94081481EC92E00E9475
:1028A000081480EA92E00E940814E0EAF2E081E075
:1028B000868383E085838FE792E00E940814EFE728
:1028C000F2E082E0868380E185830895789484B580
:1028D000826084BD84B5816084BD85B5826085BD1C
:1028E00085B5816085BD80916E00816080936E00AA
:1028F000109281008091810082608093810080919C
:10290000810081608093810080918000816080934C
:1029100080008091B10084608093B1008091B0000C
:1029200081608093B00080917A00846080937A0007
:1029300080917A00826080937A0080917A00816031
:1029400080937A0080917A00806880937A00109258
:10295000C100A89580E090E0892B11F00E94000052
:10296000E091F201F091F30182E08083E091EE01C9
:10297000F091EF011082E091F001F091F10180E11E
:1029800080831092FA01E091F601F091F70186E060
:102990008083E091F401F091F50180818061808372
:1029A000E091F401F091F501808188608083E091ED
:1029B000F401F091F501808180688083E091F40159
:1029C000F091F50180818F7D8083C0E1D0E0F12C12
:1029D000FE01F595E795E955FA4FE491C0FFB5C0C2
:1029E000EF70E83008F0B3C0F0E0E955FA4FF4902A
:1029F0006F2D82EE91E00E9460042196C23FD105C6
:102A000039F7C0EAD5E0FE016491662339F082EE21
:102A100091E00E9460042196892BA9F789E791E053
:102A20000E94FC061F928FEF8F931F9280E18F937D
:102A300082E696E09F938F930E94B7078091AA0148
:102A40008D7F8093AA010F900F900F900F900F90A1
:102A50000F9080E090E0892B51F085E596E09F9300
:102A60008F930E94B7070E9400000F900F9041E0E3
:102A700050E063E071E089EA91E00E947A1B6FEF19
:102A800081E090E00E94A21B80919B018F7880934F
:102A90009B0110929101109290018DE191E00E94B2
:102AA0001B0684E090E190939E0180939D011F920C
:102AB0001F921F921F9280E296E09F938F930E9435
:102AC000B7070E94DB050F900F900F900F900F90AB
:102AD0000F900E94DB050E94FD050E94460B80912D
:102AE0009A0182FB882780F9A895882391F388E4CE
:102AF00096E09F938F930E94B7070E947D0A909162
:102B00009A010F900F9092FB882780F992FD0E9406
:102B1000A3071F928F9380E396E09F938F930E9469
:102B2000B707A8950F900F900F900F90C0E0D0E0DE
:102B30000E94600F0E947D092097D1F30E94340407
:102B40008823B1F30E940000F3CFE29549CF1BEF39
:102B50001E0F00E06F2D82EE91E00E9460040F5F77
:102B60000117C0F34ACFEF920F931F93CF93DF93D8
:102B7000E80134E047FD34E1042E000C550B57FF0B
:102B800003C0519541955109E32E022F242FAE0128
:102B90000E948F18CE01DF91CF911F910F91EF907E
:102BA0000895FC0188279927E89421912032E9F3C0
:102BB000293010F02E30C8F32B3241F02D3239F489
:102BC000689404C00E944516820F911D21912053E4
:102BD0002A30C0F31EF4909581959F4F08951F935E
:102BE000FC0199278827BC01E89411911032E9F380
:102BF000193010F01E30C8F31B3251F01D3249F469
:102C0000689406C00E943016610F711D811D911DD0
:102C1000119110531A30B0F33EF490958095709551
:102C200061957F4F8F4F9F4F1F910895BB274A306B
:102C300031F4992322F4BDE2909581959F4F0C9435
:102C40007016BB272A3051F4992342F4BDE29095C7
:102C50008095709561957F4F8F4F9F4F0C944E16C6
:102C6000592F482F372F262F660F771F881F991F40
:102C7000660F771F881F991F620F731F841F951F90
:102C8000660F771F881F991F08957AE0979F902DF0
:102C9000879F802D910D11240895BB27FA01A62F3F
:102CA0006217710581059105330B30FB66F0AA2789
:102CB000660F771F881F991FAA1FA21710F0A21B6B
:102CC00063953850A9F7A05DAA3308F0A95DA193D8
:102CD00036F7B111B1931082CA010C94DC1ABB27EC
:102CE000FB015527AA27880F991FAA1FA41710F0C8
:102CF000A41B83955051B9F7A05DAA3308F0A95DD4
:102D0000A193009779F7B111B1931192CB010C9473
:102D1000DC1AAEE0B0E0EFE8F6E10C94E11B8C01C8
:102D2000FA018EE08C831A83098377FF02C060E08A
:102D300070E8615071097E836D83A901BF01CE01E6
:102D400001960E94B5164D815E8157FD0AC02F8104
:102D50003885421753070CF49A01020F131FF8012C
:102D600010822E96E4E00C94FD1BABE0B0E0EBEBA0
:102D7000F6E10C94D31B7C013B018A01FC01178214
:102D80001682838181FFC8C1CE0101965C01F701E3
:102D90009381F30193FD859193FF81913F018823F6
:102DA00009F453C1853239F493FD859193FF8191E4
:102DB0003F01853229F4B70190E00E94EC1AE7CF79
:102DC000912C212C312CFFE1F31538F08B3211F1CD
:102DD00090F4803209F1833229F137FC3CC020EDB8
:102DE000280F2A3050F536FE20C08AE0989E200D2C
:102DF0001124922E06C08D3291F0803371F76894C1
:102E000030F8F30193FD859193FF81913F0181118A
:102E1000DACF21C0689431F8689432F8F2CF689420
:102E200033F8EFCF689434F8ECCFEAE02E9E200D13
:102E30001124222E689435F8E4CF8E3229F436FC22
:102E400004C1689436F8DDCF8C3619F4689437F8ED
:102E5000D8CF8836B1F2982F9F7D95549330E0F00B
:102E60008336A1F18337C1F1833509F063C02801AE
:102E7000F2E04F0E511CF801C080D180692D70E046
:102E800036FC02C06FEF7FEFC6010E94C61A4C01EC
:102E9000689437F882010AC00C5F1F4FFFE3F98383
:102EA00088248394912C6501E89437F833FE2DC073
:102EB000522C8114910471F5552009F468CFB701A3
:102EC00080E290E00E94EC1A5A94F6CFF8018081DB
:102ED00089830E5F1F4FE4CF2801F2E04F0E511C93
:102EE000F801C080D180692D70E036FC02C06FEF20
:102EF0007FEFC6010E94D11A4C018201D5CFB701E4
:102F000080E290E00E94EC1A2A942814190409F037
:102F1000B0F7CECFF60137FC859137FE81916F0176
:102F2000B70190E00E94EC1A51105A94F1E08F1A08
:102F30009108BFCF843619F0893609F077C0F801BF
:102F400037FE6BC060817181828193810C5F1F4F5E
:102F5000F32DFF763F2E97FF09C0909580957095D1
:102F600061957F4F8F4F9F4F689437F82AE030E08C
:102F7000A5010E941C1BC82ECA188C2C432C36FE9F
:102F80000CC0E89440F8C91440F434FE05C032FC8B
:102F900003C0F32DFE7E4F2E892C44FE95C0FE010A
:102FA000EC0DF11D8081803309F087C0242D297E2E
:102FB000422E842D8870582E43FC95C040FE8FC051
:102FC0009C2C821418F42C0C922C981844FE91C05E
:102FD000B70180E390E00E94EC1A42FE09C088E746
:102FE00090E041FE02C088E590E0B7010E94EC1A33
:102FF000C91408F48AC0CA94D12C9FEFC91AD90AFF
:10300000CA0CDB1CF60182916F01B70190E00E94AF
:10301000EC1AAC14BD04B1F74FCF60817181072E5B
:10302000000C880B990B0E5F1F4F92CFD32CE894A6
:10303000D4F82AE030E0853739F1232D297FD22ECC
:103040008F3601F148F48835A9F0F7018681978120
:103050002B96E2E10C94EF1B803749F08837A9F7F3
:10306000D4FE02C06894D2F820E130E00DC068942C
:10307000D4F8F6CF34FE03C0822F8660D82E20E12C
:1030800032E002C028E030E0F801D7FE0FC06081D6
:103090007181828193810C5F1F4FA5010E941C1BCF
:1030A000C82ECA183D2CE89437F867CF608171812B
:1030B00090E080E00E5F1F4FF0CF42FC02C083948F
:1030C00078CF8394839475CF842D867809F471CF5B
:1030D000F6CFB70180E290E00E94EC1A839482144C
:1030E000C0F3512C73CF522C5818821408F46ECFB1
:1030F000F8CF842D867809F47BCF8BE241FE80E205
:1031000047FC8DE2B70190E071CFB70180E390E01A
:103110000E94EC1A9A946CCF8FEF9FEF99CFA9E0A1
:10312000B0E0E5E9F8E10C94D91B6A01F22EB02E6B
:10313000102FFBE3AF2EA01608F41BE31F5F012F37
:1031400027E0AE014F5F5F4F0E94EE19BC018981FD
:10315000982F9970913009F43FC09BE2E1FC04C0C4
:103160009E2D9170E0FC3AC05E2D5071E82FE87002
:1031700083FF46C084E0911101C083E0EF2DE81B7E
:103180008F1508F0E0E0D6018E2F20E2552351F193
:10319000992329F0D6019C93C60101966C019601F2
:1031A0002D5F3F4FE2FE24C08EE4D6018C9391E464
:1031B00011969C93119712968C93D9018E2F90E2C1
:1031C00081111BC0E20FF32FF11D10828EEF9FEFD4
:1031D0002996ECE00C94F51B9DE2C6CF90E2C4CF9B
:1031E0002D9381508111FCCFCE0ED11CE0E0D0CFC9
:1031F0008EE6D6018C9391E6DBCF9D938150E0CF94
:10320000482F447082FF3DC084E0911101C083E0EB
:103210008F1510F4EF2DE81BD6018E2F20E25523D9
:1032200009F1992329F0D6019C93C60101966C01FE
:1032300096012D5F3F4FE2FE1BC089E4D6018C93BF
:103240008EE411968C93119786E412968C93D90193
:103250008E2F90E2882309F4B5CF9D938150FACF49
:103260002D9381508111FCCFCE0ED11CE0E0D9CF3F
:1032700089E6D6018C938EE611968C93119786E69B
:10328000E4CF9B0177FF02C030E020E0A1E0B0E096
:10329000911102C0B0E0A0E0F9013196AE0FBF1F5E
:1032A0008B2C912CBB2009F461C05401EFEFAE1AB6
:1032B000BE0AAA0DBB1DFA161B0619F014F04F2DFD
:1032C0004A1B511188C0E3FC59C07601A42FB0E21B
:1032D000A1114FC0C40ED11C992309F45BC040E07A
:1032E000D6011196F60190836D01552309F448C06B
:1032F000012F060F9A81582F507184FF03C091331C
:1033000009F4015010160CF047C0093008F008E02D
:10331000EEE2FE2E5B01A01AB10885019194819422
:1033200091082F3F320729F4D601FC92F60131961D
:103330006F016217730794F1021713077CF5DB0125
:10334000A21BB30BAA24A394B12CAC0EBD1EAA0DD4
:10335000BB1D11968C9121503109D601119628156B
:103360003905F4F0F60180836D01DBCFB12CA12C7F
:10337000A0CFF701B1937F01A150AACF9111B0CF97
:10338000D601942F50E302C05D9391509111FCCF70
:10339000C40ED11C40E0ACCF01E0BACF80E3DBCF5C
:1033A0006217730731F4963388F4953311F455237B
:1033B00069F0F6018083FD01842F90E2811108C03D
:1033C000A40FB11D1C9290E080E002CF81E3F1CF09
:1033D00091938150F3CF911183CF8ACF283008F099
:1033E00027E03327DA01990F311D87FD91600096A0
:1033F0006105710539F432602E5F3D9330E32A9503
:10340000E1F708959F3F30F080387105610509F0BC
:103410003C5F3C5F3D93913008F08068911DDF93E5
:10342000CF931F930F93FF92EF92192F987F96954A
:10343000E92F96959695E90FFF27EE53FF4F9927B1
:103440003327EE24FF24A701E70105900894079491
:1034500028F4360FE71EF81E491F511D660F771F0F
:10346000881F991F0694A1F70590079428F4E70E8A
:10347000F81E491F561FC11D770F881F991F661F11
:103480000694A1F70590079428F4F80E491F561FDB
:10349000C71FD11D880F991F661F771F0694A1F7BC
:1034A0000590079420F4490F561FC71FD81F990F86
:1034B000661F771F881F0694A9F7849110951770CF
:1034C00041F0D695C79557954795F794E7941A9587
:1034D000C1F7E8E6F0E06894159015913591659193
:1034E000959105907FE27395E118F10A430B560B15
:1034F000C90BD009C0F7E10CF11E431F561FC91FAD
:10350000D01D7EF4703311F48A95E6CFE894015013
:1035100030F0080F0AF40027021708F4202F239533
:10352000022F7A3328F079E37D932A95E9F710C0CA
:103530007D932A9589F60694979567953795179503
:103540001794E118F10A430B560BC90BD00998F0F8
:1035500023957E9173957A3308F070E37C93201362
:10356000B8F77E9170617D9330F0839571E37D9320
:1035700070E32A95E1F71124EF90FF900F911F91CE
:10358000CF91DF91992787FD90950895FC010590D3
:10359000615070400110D8F7809590958E0F9F1F55
:1035A0000895FC016150704001900110D8F780959A
:1035B00090958E0F9F1F0895DC01FC01672F71917C
:1035C0007723E1F7329704C07C916D937083629109
:1035D000AE17BF07C8F308950F931F93CF93DF93E0
:1035E000182F092FEB018B8181FD09C01FEF0FEF11
:1035F000812F902FDF91CF911F910F91089582FF1E
:1036000014C02E813F818C819D81281739073CF49D
:10361000E881F981CF0101969983888310838E8197
:103620009F8101969F838E83E3CFE885F985812F63
:103630000995892BA1F3DACFFA01AA27283051F195
:10364000203181F1E8946F936E7F6E5F7F4F8F4FD3
:103650009F4FAF4FB1E03ED0B4E03CD0670F781F32
:10366000891F9A1FA11D680F791F8A1F911DA11D17
:103670006A0F711D811D911DA11D20D009F4689450
:103680003F912AE0269F11243019305D3193DEF6F8
:10369000CF010895462F4770405D4193B3E00FD0AE
:1036A000C9F7F6CF462F4F70405D4A3318F0495D99
:1036B00031FD4052419302D0A9F7EACFB4E0A6957C
:1036C0009795879577956795BA95C9F7009761059E
:1036D000710508959B01AC010A2E069457954795F4
:1036E00037952795BA95C9F7620F731F841F951FE9
:1036F000A01D0895DC01CB01FC01F999FECF06C0A5
:10370000F2BDE1BDF89A319600B40D92415050409F
:10371000B8F70895F999FECF92BD81BDF89A99271F
:1037200080B50895DC01A40FB51F4150504048F00A
:10373000CB01840F951F2E910E94A31B4150504036
:10374000D0F70895262FF999FECF92BD81BDF89A42
:10375000019700B4021639F01FBA20BD0FB6F894D5
:10376000FA9AF99A0FBE0895052E97FB1EF400945D
:103770000E94CB1B57FD07D00E940A1C07FC03D0F8
:103780004EF40C94CB1B50954095309521953F4FAE
:103790004F4F5F4F089590958095709561957F4F3D
:1037A0008F4F9F4F08952F923F924F925F926F924B
:1037B0007F928F929F92AF92BF92CF92DF92EF92C1
:1037C000FF920F931F93CF93DF93CDB7DEB7CA1B42
:1037D000DB0B0FB6F894DEBF0FBECDBF09942A886D
:1037E000398848885F846E847D848C849B84AA8415
:1037F000B984C884DF80EE80FD800C811B81AA81A2
:10380000B981CE0FD11D0FB6F894DEBF0FBECDBF6C
:10381000ED010895A1E21A2EAA1BBB1BFD010DC0EC
:10382000AA1FBB1FEE1FFF1FA217B307E407F50770
:1038300020F0A21BB30BE40BF50B661F771F881F4C
:10384000991F1A9469F760957095809590959B01E2
:10385000AC01BD01CF010895A29FB001B39FC0018B
:10386000A39F700D811D1124911DB29F700D811DAC
:103870001124911D08950E942C1CB7FF0895821BEE
:10388000930B0895EE0FFF1F0590F491E02D09941E
:10389000FB01DC014150504048F001900D920020A6
:1038A000C9F701C01D9241505040E0F70895AEE0C5
:1038B000B0E0EDE5FCE10C94E11B0D891E8986E08A
:1038C0008C831A8309838FEF9FE79E838D83AE01DC
:1038D000475E5F4F6F89788DCE0101960E94B516C5
:1038E0002F813885020F131FF80110822E96E4E015
:1038F0000C94FD1BF894FFCFFFFFFF00FCE1A8A88C
:10390000FF6E1144112811D510A9109710CB1190FA
:10391000115B103310E612EA11E705E7050000001D
:10392000006004CA03F703AD04280406041A043C2B
:103930004E4F4E43453E004F4B004E41434B003FE0
:10394000002100322E332E3200444F4D2D4C415A6F
:1039500000312E310052253032752E414F31005248
:10396000253032752E424931002020202020202091
:04397000000D0A003C
:107E0000112484B714BE81FFF0D085E080938100F7
:107E100082E08093C00088E18093C10086E0809377
:107E2000C20080E18093C4008EE0C9D0259A86E02C
:107E300020E33CEF91E0309385002093840096BBD3
:107E4000B09BFECF1D9AA8958150A9F7CC24DD24C4
:107E500088248394B5E0AB2EA1E19A2EF3E0BF2EE7
:107E6000A2D0813461F49FD0082FAFD0023811F036
:107E7000013811F484E001C083E08DD089C08234E0
:107E800011F484E103C0853419F485E0A6D080C0E4
:107E9000853579F488D0E82EFF2485D0082F10E0AE
:107EA000102F00270E291F29000F111F8ED06801E7
:107EB0006FC0863521F484E090D080E0DECF843638
:107EC00009F040C070D06FD0082F6DD080E0C81688
:107ED00080E7D80618F4F601B7BEE895C0E0D1E017
:107EE00062D089930C17E1F7F0E0CF16F0E7DF06D8
:107EF00018F0F601B7BEE89568D007B600FCFDCFD4
:107F0000A601A0E0B1E02C9130E011968C91119780
:107F100090E0982F8827822B932B1296FA010C0160
:107F200087BEE89511244E5F5F4FF1E0A038BF0790
:107F300051F7F601A7BEE89507B600FCFDCF97BE46
:107F4000E89526C08437B1F42ED02DD0F82E2BD052
:107F50003CD0F601EF2C8F010F5F1F4F84911BD097
:107F6000EA94F801C1F70894C11CD11CFA94CF0C13
:107F7000D11C0EC0853739F428D08EE10CD085E9AC
:107F80000AD08FE07ACF813511F488E018D01DD067
:107F900080E101D065CF982F8091C00085FFFCCF94
:107FA0009093C60008958091C00087FFFCCF809118
:107FB000C00084FD01C0A8958091C6000895E0E648
:107FC000F0E098E1908380830895EDDF803219F02E
:107FD00088E0F5DFFFCF84E1DECF1F93182FE3DFCA
:107FE0001150E9F7F2DF1F91089580E0E8DFEE27F6
:047FF000FF270994CA
:027FFE00040479
:00000001FF
